:100000000C945F000C9487000C9487000C9487007C
:100010000C9487000C9487000C9487000C94870044
:100020000C9487000C9487000C9487000C94DB03DD
:100030000C9487000C9487000C9487000C94870024
:100040000C94270B0C9487000C9482090C94B4092F
:100050000C9487000C9487000C9487000C94870004
:100060000C9434060C948700000000080002010084
:100070000003040700000000000000000102040863
:100080001020408001020408102001020408102002
:10009000040404040404040402020202020203032E
:1000A0000303030300000000250028002B000000CC
:1000B0000000240027002A0093035308E4091124B8
:1000C0001FBECFEFD8E0DEBFCDBF11E0A0E0B1E0B2
:1000D000ECE8FBE102C005900D92AE36B107D9F70E
:1000E00023E0AEE6B1E001C01D92AE35B207E1F704
:1000F00010E0CFE5D0E004C02197FE010E94540D2E
:10010000CC35D107C9F70E94120A0C94C40D0C9487
:1001100000000F931F93CF93DF93EC0108811981A7
:100120006AE071E0C8010E948C0D892BB1F50A814B
:100130001B816FE071E0C8010E948C0D892B49F48E
:100140008C819D810E94690D909307018093060127
:100150000FC065E171E0C8010E948C0D892B61F42C
:100160008C819D810E94690D90930501809304010B
:1001700081E08093820187C069E171E0C8010E943B
:100180008C0D892B09F07FC08C819D810E94690DA7
:10019000909309018093080176C06FE171E0C80176
:1001A0000E948C0D892B71F50A811B8164E271E03C
:1001B000C8010E948C0D892B49F48C819D810E947D
:1001C000690D90930101809300015DC06DE271E0C3
:1001D000C8010E948C0D892B09F055C08C819D812E
:1001E0000E94690D909303018093020180910201A6
:1001F00090910301181619060CF045C081E0809318
:10020000750141C061E371E0C8010E948C0D892B2A
:10021000D1F50A811B8165E371E0C8010E948C0D54
:10022000892B59F48C819D810E94690D21E0892BD5
:1002300009F420E02093730123C067E371E0C80153
:100240000E948C0D892B59F48C819D810E94690D2F
:1002500021E0892B09F420E02093720111C069E3A9
:1002600071E0C8010E948C0D892B69F48C819D81FD
:100270000E94690D21E0892B09F420E0209371018F
:1002800081E080937001DF91CF911F910F910895CC
:10029000CF92DF92EF92FF920F931F93CF93DF9352
:1002A000CDB7DEB764970FB6F894DEBF0FBECDBFF3
:1002B00000006BE371E00E94870D9E012F5F3F4FAE
:1002C000790100E010E06901009781F0F701819366
:1002D00091937F010F5F1F4F0A30110539F06BE3D7
:1002E00071E080E090E00E94870DEECFB801C6017A
:1002F0000E94890064960FB6F894DEBF0FBECDBF92
:10030000DF91CF911F910F91FF90EF90DF90CF90F1
:10031000089565E070E08CEC91E00E94380566E09D
:1003200070E089EC91E00E943805609106017091BF
:1003300007018CEC91E00E947405609104017091BA
:10034000050189EC91E00E94740583E08093B1007F
:100350008FE38093B3001092B40061E083E00E94C9
:10036000400C61E087E00E94400C61E088E00E9460
:10037000400C61E089E00E94400C60E087E00E9450
:100380007C0C60E088E00E947C0C60E089E00E94C8
:100390007C0C68E070E083E692E00E944C086CEA16
:1003A00073E083E692E00E944E0826E040E855E2C2
:1003B00060E070E088EB92E00C941D09CF92DF9230
:1003C000EF92FF9280917001882301F18091730177
:1003D000882311F061E001C060E087E00E947C0C9E
:1003E00080917201882311F061E001C060E088E033
:1003F0000E947C0C80917101882311F061E001C0A2
:1004000060E089E00E947C0C10927001809175017F
:10041000882309F43FC00E94710B209100013091A4
:100420000101C0907601D0907701E0907801F090C2
:100430007901AB01BC014C195D096E097F09C90145
:10044000330FAA0BBB0B84179507A607B70710F548
:100450009091740181E089278093740180917401E7
:10046000882309F4FCC06FE770E083E00E94B80BBA
:100470008091020190910301892B11F41092750172
:100480000E94710B609376017093770180937801DD
:1004900090937901809187018823A1F0E0918801F0
:1004A000F0E0E757FE4F10821092880169E871E092
:1004B00088EB92E00E946B0A89E891E00E94480173
:1004C000109287012091850130918601809106016B
:1004D000909107018217930714F50E94710B2091E8
:1004E000080130910901C0907E01D0907F01E09019
:1004F0008001F0908101AB01BC014C195D096E09CE
:100500007F0988EE93E0821B930B092E000CAA0B47
:10051000BB0B84179507A607B70708F4AFC0209157
:10052000850130918601809106019091070128177D
:10053000390714F50E94710B2091080130910901CF
:10054000C0907E01D0907F01E0908001F090810109
:10055000AB01BC014C195D096E097F0988EE93E07F
:10056000821B930B092E000CAA0BBB0B841795075B
:10057000A607B70708F496C0209183013091840143
:1005800080910401909105018217930714F50E9450
:10059000710B2091080130910901C0907A01D0902F
:1005A0007B01E0907C01F0907D01AB01BC014C1916
:1005B0005D096E097F0988EE93E0821B930B092E7B
:1005C000000CAA0BBB0B84179507A607B70708F406
:1005D0007DC020918301309184018091040190912C
:1005E00005012817390714F50E94710B20910801A5
:1005F00030910901C0907A01D0907B01E0907C019C
:10060000F0907D01AB01BC014C195D096E097F09B9
:1006100088EE93E0821B930B092E000CAA0BBB0BF8
:1006200084179507A607B70708F464C08091820174
:10063000882309F473C060918501709186018CEC68
:1006400091E00E947405609183017091840189ECAE
:1006500091E0FF90EF90DF90CF900C94740560E0F4
:1006600070E083E00E94B80B809102019091030139
:1006700001979093030180930201FACE8091850146
:1006800090918601019790938601809385010E9445
:10069000710B60937E0170937F0180938001909332
:1006A00081013DCF809185019091860101969093C3
:1006B0008601809385010E94710B60937E01709387
:1006C0007F01809380019093810156CF80918301B7
:1006D00090918401019790938401809383010E94FB
:1006E000710B60937A0170937B0180937C019093EE
:1006F0007D016FCF80918301909184010196909349
:100700008401809383010E94710B60937A0170933E
:100710007B0180937C0190937D0188CFFF90EF90C7
:10072000DF90CF9008958CEC91E00E949C0489ECBE
:1007300091E00E949C0480910601909107019093A2
:100740008601809385018091040190910501909329
:10075000840180938301089583E692E00E946107FB
:10076000029754F083E692E00E946907682F88EBB5
:1007700092E00E94600AF0CF83E692E00E9469074F
:1007800020918801203480F4E091880121E02E0F2F
:1007900020938801F0E0E757FE4F80838A3091056F
:1007A00019F421E0209387014AE050E0BC0188EB76
:1007B00092E00C94150B1F920F920FB60F9211241A
:1007C0002F933F934F935F936F937F938F939F9359
:1007D000AF93BF93EF93FF938091D00187FF05C044
:1007E00010928500109284001BC02091D001022E2F
:1007F000000C330B8091CF0190E02817390784F467
:100800008091D001082E000C990BFC01EE0FFF1F08
:100810008E0F9F1FFC01EF52FE4F808186FD15C099
:100820008091D0018F5F8093D0012091D001022E62
:10083000000C330B8091CF0190E028173907C4F4E6
:100840008091D0018C3064F113C08091D001082ECA
:10085000000C990BFC01EE0FFF1F8E0F9F1FFC0178
:10086000EF52FE4F808160E08F730E947C0CD8CFE6
:100870008091840090918500049680349C4918F4FE
:1008800080E49CE905C080918400909185000496E5
:1008900090938900809388008FEF8093D0013BC0B4
:1008A00020918400309185008091D001082E000CA9
:1008B000990BFC01EE0FFF1F8E0F9F1FFC01EF52E3
:1008C000FE4F81819281820F931F909389008093C4
:1008D00088008091D001082E000C990BFC01EE0FCE
:1008E000FF1F8E0F9F1FFC01EF52FE4F808186FF7E
:1008F00012C08091D001082E000C990BFC01EE0F64
:10090000FF1F8E0F9F1FFC01EF52FE4F808161E0A1
:100910008F730E947C0CFF91EF91BF91AF919F91DB
:100920008F917F916F915F914F913F912F910F9098
:100930000FBE0F901F901895FC019091CF019C3035
:10094000A0F481E0890F8093CF019083892F90E0FC
:10095000FC01EE0FFF1F8E0F9F1FFC01EF52FE4F99
:1009600088EB9BE09283818308958FEF80830895C5
:10097000DF92EF92FF920F931F93CF93DF93EC01DF
:10098000D62E7A01890188818C3008F068C061E038
:100990008D2D0E94400C8881E82FF0E09F01220FEE
:1009A000331FE20FF31FEF52FE4F9D2D9F732081E7
:1009B000207CD22ED92AD08220E232E02E193F09A3
:1009C00037FF02C02D5F3F4F359527953595279509
:1009D000298320E639E0201B310B37FF02C02D5F51
:1009E0003F4F35952795359527952A832CE0622F23
:1009F0000E94FC0C289FB001112440E050E09B01B4
:100A0000240F351FF901EE0FFF1F2E0F3F1FF901B5
:100A1000EF52FE4F908196FD16C04F5F5F4F4C30F6
:100A2000510569F781110FC01092800082E0809318
:100A300081001092850010928400B19A80916F001D
:100A4000826080936F00E881F0E0CF01880F991FEA
:100A5000E80FF91FEF52FE4F808180648083888108
:100A6000DF91CF911F910F91FF90EF90DF9008954C
:100A700020E639E040E252E00C94B804FC01908199
:100A80009C3088F5818128E830E0281B310987FDFA
:100A90003395220F331F220F331F6217730784F021
:100AA000828148E552E0481B510987FD5395440F68
:100AB000551F440F551F9B01461757070CF49A0109
:100AC00022503109220F331F4FB7F894892F90E03D
:100AD000FC01EE0FFF1F8E0F9F1FFC01EF52FE4F18
:100AE000328321834FBF0895AF92BF92CF92DF929E
:100AF000EF92FF920F931F93CF93DF93EC0160323D
:100B000082E078070CF03FC077FD06C0653B7105B9
:100B10002CF064EB70E002C060E070E0898128E8AE
:100B200030E05901A81AB10887FDB394AA0CBB1C88
:100B3000AA0CBB1C0B2C000CCC08DD08072E000CEB
:100B4000880B990B2A8108E512E0021B110927FD89
:100B50001395000F111F000F111F012E000C220B07
:100B6000330B3F932F931F930F9314EBE12EF12C34
:100B700000E010E020E030E0A9010E94AB0C0F90F3
:100B80000F900F900F90CE01DF91CF911F910F9199
:100B9000FF90EF90DF90CF90BF90AF900C943E0508
:100BA0001092620281E08093600210925F0261E025
:100BB00082E10E947C0C61E083E10E947C0CE9EB05
:100BC000F0E080818E7F808380818D7F808388E4C8
:100BD0008093B80085E48093BC000895880F8093CB
:100BE000BA00089540911702262F30E0240F311DDE
:100BF00021323105DCF4209162022430C9F4FC0179
:100C000080E090E0861758F4309117022191DC01C2
:100C1000A75EBD4FA30FB11D2C930196F3CF80911A
:100C20001702680F6093170280E0089581E008952D
:100C300082E0089590935C0280935B020895909304
:100C40005E0280935D02089585ED8093BC008091E3
:100C5000BC0084FDFCCF10926202089585EC809365
:100C6000BC001092620208951F920F920FB60F926D
:100C700011242F933F934F935F936F937F938F93A1
:100C80009F93AF93BF93EF93FF938091B900887FB9
:100C9000803609F49EC078F5883209F45DC090F47E
:100CA000803109F456C038F4882309F4F5C088303F
:100CB00009F44FC0F5C0883109F44EC0803209F400
:100CC0005FC0EEC0803409F46AC058F4803309F480
:100CD00057C0883309F0E4C08093F5010E942E06C6
:100CE000DFC0803509F44FC0883509F45DC0883411
:100CF00009F0D6C0D3C0883909F4C4C0A8F4883735
:100D000009F467C038F4883609F463C0803709F401
:100D100060C0C6C0883809F4B5C0803909F45FC026
:100D2000803809F0BDC05BC0803B09F483C038F453
:100D3000803A09F466C0883A09F47CC0B1C0803CAE
:100D400009F4A4C0883C09F4A1C0883B09F487C019
:100D5000A7C08091610210C090913A02809139023F
:100D6000981770F5E0913A0281E08E0F80933A0275
:100D7000F0E0E55CFD4F80818093BB0085EC83C093
:100D80008093F5018BC0E0913A0281E08E0F809351
:100D90003A028091BB00F0E0E55CFD4F80839091CA
:100DA0003A02809139026BC0E0913A0281E08E0FE5
:100DB00080933A028091BB00F0E0E55CFD4F8083B8
:100DC0008091600281116AC081E080935F0284EAB1
:100DD0005EC083E0809362021092F601CFCF8091D3
:100DE000F601803208F04EC0E091F60181E08E0FEE
:100DF0008093F6018091BB00F0E0E950FE4F8083C4
:100E0000BDCF0E942E068091F601803230F4E09131
:100E1000F601F0E0E950FE4F10826091F60170E0BB
:100E2000E0915B02F0915C0287EF91E009951092EE
:100E3000F60136C084E0809362021092180210928C
:100E40001702E0915D02F0915E0209958091170210
:100E5000811105C081E08093170210921902E09180
:100E6000180281E08E0F80931802F0E0E75EFD4FDC
:100E700080818093BB00909118028091170298178F
:100E800008F47CCF85E88093BC000AC085EC809391
:100E9000BC001092620204C01092F5010E94240668
:100EA000FF91EF91BF91AF919F918F917F916F9142
:100EB0005F914F913F912F910F900FBE0F901F9018
:100EC00018958091960290E020919702821B9109DB
:100ED00008959091970280919602981750F4E92F07
:100EE000F0E0E856FD4F208130E09F5F909397023D
:100EF00002C02FEF3FEFC9010895E0919702809162
:100F00009602E81730F4F0E0E856FD4F808190E05B
:100F100008958FEF9FEF08950895CF93DF93EC012D
:100F2000E0916F02F09170023097F1F0909197028A
:100F3000809196029817C0F090E0292F30E0261794
:100F4000370754F4DE01A20FB31F4C91D901A85604
:100F5000BD4F4C939F5FF1CF109297026093960222
:100F6000CB01DF91CF910994DF91CF910895E0916A
:100F70007102F0917202309729F01092750210926E
:100F8000740209940895CF92DF92EF92FF920F932B
:100F90001F93CF93DF937C01CB018A0120917302D1
:100FA000222389F0EB016B01C40ED51ECC15DD05A3
:100FB00069F06991D701ED91FC910190F081E02DEC
:100FC000C7010995F3CF642F0E94F205C801DF9194
:100FD000CF911F910F91FF90EF90DF90CF900895E8
:100FE000CF93DF931F92CDB7DEB769832091730251
:100FF0002223D1F020917402203240F021E030E031
:10100000FC013383228380E090E015C0809175025B
:10101000E82FF0E0EA58FD4F998190838F5F80932D
:1010200075028093740205C061E0CE0101960E94B2
:10103000F20581E090E00F90DF91CF910895FC01DF
:101040001382128288EE93E0A0E0B0E0848395835F
:10105000A683B78382E491E0918380830895109200
:1010600097021092960210927502109274020C94DC
:10107000D005CF93DF93EC01862F0E94EE0587EB1E
:1010800097E00E941F068DE897E00E941A06CE01A5
:10109000DF91CF910C942F080C9439087093700253
:1010A00060936F02089583E692E00C941F08FC01A0
:1010B000918D228D892F90E0805C9F4F821B91093A
:1010C0008F7399270895FC01918D828D981731F0C7
:1010D000828DE80FF11D858D90E008958FEF9FEFD1
:1010E0000895FC01918D828D981761F0828DDF014A
:1010F000A80FB11D5D968C91928D9F5F9F73928F0B
:1011000090E008958FEF9FEF08958AED99E0892B85
:1011100049F080E090E0892B29F00E94DA098111E2
:101120000C9400000895FC01848DDF01A80FB11D0F
:10113000A35ABF4F2C91848D90E001968F7399270D
:10114000848FA689B7892C93A089B1898C918064FA
:101150008C93938D848D981306C00288F389E02DBB
:1011600080818F7D80830895EF92FF920F931F936C
:10117000CF93DF93EC0181E0888F9B8D8C8D98134A
:1011800005C0E889F989808185FD24C0F62E0B8D84
:1011900010E00F5F1F4F0F731127E02E8C8DE812A8
:1011A0000CC00FB607FCFACFE889F989808185FF6A
:1011B000F5CFCE010E949308F1CF8B8DFE01E80F91
:1011C000F11DE35AFF4FF0820B8FEA89FB89808182
:1011D000806207C0EE89FF896083E889F989808190
:1011E0008064808381E090E0DF91CF911F910F9127
:1011F000FF90EF900895CF93DF93EC01888D8823C3
:10120000C9F0EA89FB89808185FD05C0A889B98973
:101210008C9186FD0FC00FB607FCF5CF808185FF4E
:10122000F2CFA889B9898C9185FFEDCFCE010E94BC
:101230009308E7CFDF91CF910895CF92DF92EF929D
:10124000FF921F93CF93DF93EC016A017B01122F72
:10125000E889F98982E080834115514E6105710565
:10126000B1F060E079E08DE390E0A70196010E9483
:10127000080DDA01C9010197A109B109B695A79531
:10128000979587959C01211580E13807A8F0E8899A
:10129000F989108260E874E88EE190E0A701960178
:1012A0000E94080DDA01C9010197A109B109B6959B
:1012B000A795979587959C01EC85FD853083EE85F4
:1012C000FF852083188EEC89FD891083EA89FB89CC
:1012D000808180618083EA89FB8980818860808346
:1012E000EA89FB89808180688083EA89FB89808123
:1012F0008F7D8083DF91CF911F91FF90EF90DF90E2
:10130000CF9008951F920F920FB60F9211242F9332
:101310008F939F93EF93FF93E091C802F091C902DE
:101320008081E091CE02F091CF0282FD12C09081C7
:101330008091D1028F5F8F732091D202821751F07A
:10134000E091D102F0E0E854FD4F958F8093D102F7
:1013500001C08081FF91EF919F918F912F910F900C
:101360000FBE0F901F9018951F920F920FB60F92FD
:1013700011242F933F934F935F936F937F938F939A
:101380009F93AF93BF93EF93FF9388EB92E00E94FC
:101390009308FF91EF91BF91AF919F918F917F91B2
:1013A0006F915F914F913F912F910F900FBE0F90D2
:1013B0001F90189588EB92E00E94570821E0892B36
:1013C00009F420E0822F0895E8EBF2E01382128204
:1013D00088EE93E0A0E0B0E084839583A683B78392
:1013E00082E591E09183808385EC90E09587848706
:1013F00084EC90E09787868780EC90E0918B808BDF
:1014000081EC90E0938B828B82EC90E0958B848BC7
:1014100086EC90E0978B868B118E128E138E148E35
:10142000089508950E947D0B0E94110A0E9489016F
:10143000C5E8D8E00E94DE012097E1F30E9485080C
:10144000F9CFCF92DF92EF92FF920F931F93CF933A
:10145000DF936C017A018B01C0E0D0E0CE15DF058F
:1014600081F0D8016D918D01D601ED91FC91019033
:10147000F081E02DC6010995892B11F02196EECF60
:101480007E01C701DF91CF911F910F91FF90EF90E7
:10149000DF90CF9008956115710579F0FB010190FF
:1014A0000020E9F73197AF01461B570BDC01ED91A6
:1014B000FC910280F381E02D099480E090E0089592
:1014C000DC01ED91FC910190F081E02D09946EE535
:1014D00071E00C944B0A0F931F93CF93DF93EC01B1
:1014E0000E944B0A8C01CE010E94670A800F911F57
:1014F000DF91CF911F910F9108958F929F92AF929C
:10150000BF92EF92FF920F931F93CF93DF93CDB7CC
:10151000DEB7A1970FB6F894DEBF0FBECDBF7C013A
:10152000FA01CB0119A2223008F42AE08E010F5DE6
:101530001F4F822E912CA12CB12CBF01A50194012B
:101540000E94080DF901CA01015011096A3010F416
:10155000605D01C0695CD8016C93232B242B252B83
:1015600061F7B801C7010E944B0AA1960FB6F89423
:10157000DEBF0FBECDBFDF91CF911F910F91FF90C6
:10158000EF90BF90AF909F908F900895CF92DF9291
:10159000EF92FF920F931F93CF93DF9321153105A5
:1015A00081F4DC01ED91FC910190F081E02D642F3C
:1015B000DF91CF911F910F91FF90EF90DF90CF902F
:1015C00009942A30310501F577FF1DC06A017B01BE
:1015D000EC016DE20E94600A8C0144275527BA0194
:1015E0004C195D096E097F092AE0CE010E947D0A2F
:1015F000800F911FDF91CF911F910F91FF90EF907E
:10160000DF90CF9008952AE0DF91CF911F910F9145
:10161000FF90EF90DF90CF900C947D0A9A01AB0180
:10162000770F660B770B0C94C60A0F931F93CF931B
:10163000DF93EC010E940E0B8C01CE010E94670A21
:10164000800F911FDF91CF911F910F9108951F92ED
:101650000F920FB60F9211242F933F938F939F9366
:10166000AF93BF938091560390915703A091580375
:10167000B09159033091550323E0230F2D3720F407
:101680000196A11DB11D05C026E8230F0296A11DDC
:10169000B11D209355038093560390935703A09355
:1016A0005803B093590380915A0390915B03A09122
:1016B0005C03B0915D030196A11DB11D80935A0397
:1016C00090935B03A0935C03B0935D03BF91AF91D4
:1016D0009F918F913F912F910F900FBE0F901F9070
:1016E00018952FB7F8946091560370915703809125
:1016F0005803909159032FBF0895789484B5826060
:1017000084BD84B5816084BD85B5826085BD85B5A5
:10171000816085BDEEE6F0E0808181608083E1E854
:10172000F0E010828081826080838081816080838C
:10173000E0E8F0E0808181608083E1EBF0E080818F
:1017400084608083E0EBF0E0808181608083EAE761
:10175000F0E08081846080838081826080838081EA
:10176000816080838081806880831092C1000895A9
:101770001F93CF93DF93182FEB0161E00E94400C81
:10178000209711F460E004C0CF3FD10539F461E047
:10179000812FDF91CF911F910C947C0CE12FF0E011
:1017A000E859FF4FE491E330F9F048F4E130B9F043
:1017B000E230A1F584B5806284BDC8BD34C0E73095
:1017C000E9F0E83019F1E43049F580918000806259
:1017D00080938000D0938B00C0938A0024C084B58E
:1017E000806884BDC7BD1FC08091800080688093E1
:1017F0008000D0938900C093880015C08091B0000C
:1018000080688093B000C093B3000DC08091B00099
:1018100080628093B000C093B40005C0C038D10589
:101820000CF0B5CFAFCFDF91CF911F9108958330EA
:1018300081F028F4813099F08230A1F0089587304A
:10184000A9F08830B9F08430D1F4809180008F7D88
:1018500003C0809180008F7780938000089584B5C5
:101860008F7702C084B58F7D84BD08958091B000CC
:101870008F7703C08091B0008F7D8093B000089572
:10188000CF93DF9390E0FC01E458FF4F2491FC01DB
:10189000E057FF4F8491882361F190E0880F991FF2
:1018A000FC01E255FF4FC591D491FC01EC55FF4F6F
:1018B000A591B491611109C09FB7F89488812095D2
:1018C00082238883EC912E230BC0623061F49FB792
:1018D000F8948881322F309583238883EC912E2BC6
:1018E0002C939FBF06C08FB7F894E8812E2B2883D6
:1018F0008FBFDF91CF9108951F93CF93DF93282F50
:1019000030E0F901E859FF4F8491F901E458FF4FA5
:10191000D491F901E057FF4FC491CC23C1F0162FA9
:1019200081110E94170CEC2FF0E0EE0FFF1FEC5519
:10193000FF4FA591B4919FB7F894111104C08C91F9
:10194000D095D82302C0EC91DE2BDC939FBFDF91B2
:10195000CF911F9108954F925F926F927F92AF92B5
:10196000BF92CF92DF92EF92FF920F931F93CF938C
:10197000DF93CDB7DEB729013A019B01AC012419F1
:1019800035094609570989899A89AB89BC89BC01FF
:10199000CD016A197B098C099D090E94EC0CA801F4
:1019A000970124193509460957090E942A0DCA01D1
:1019B000B9016A0D7B1D8C1D9D1DDF91CF911F917B
:1019C0000F91FF90EF90DF90CF90BF90AF907F90FE
:1019D0006F905F904F900895DB018F939F930E94CB
:1019E000490DBF91AF91A29F800D911DA39F900DB6
:1019F000B29F900D11240895991B79E004C0991F9E
:101A0000961708F0961B881F7A95C9F78095089558
:101A1000A1E21A2EAA1BBB1BFD010DC0AA1FBB1FF2
:101A2000EE1FFF1FA217B307E407F50720F0A21B64
:101A3000B30BE40BF50B661F771F881F991F1A94D1
:101A400069F760957095809590959B01AC01BD01FB
:101A5000CF010895052E97FB1EF400940E94410DBE
:101A600057FD07D00E94080D07FC03D04EF40C94DC
:101A7000410D50954095309521953F4F4F4F5F4F09
:101A8000089590958095709561957F4F8F4F9F4FEA
:101A900008950E945A0DA59F900DB49F900DA49F8C
:101AA000800D911D11240895EE0FFF1F0590F491F4
:101AB000E02D0994A29FB001B39FC001A39F700DB8
:101AC000811D1124911DB29F700D811D1124911D46
:101AD0000895FC0188279927E89421912032E9F3A1
:101AE000293010F02E30C8F32B3241F02D3239F46A
:101AF000689404C00E94BC0D820F911D2191205357
:101B00002A30C0F31EF4909581959F4F08954EE6BC
:101B100051E00E94950D0895FB01DC018D9101902B
:101B200080190110D9F3990B0895FA01A191B081A0
:101B3000009719F41097E1F0CD01DC01CD010D9073
:101B4000002011F4C00113C0FB012191222319F0E0
:101B50002015D9F7F3CFFB012191201519F41E921E
:101B6000119606C02223C1F70D900020A1F7D001E5
:101B7000FA01A193B08308957AE0979F902D879FF3
:0C1B8000802D910D11240895F894FFCFE2
:101B8C00C80003005A003C00E803636374760070DD
:101B9C0069746368007961770073706565640062CD
:101BAC00656570007365745F72617465006E6F7744
:101BBC00006C656400310032003300202C00000002
:101BCC000000F007C307610769077D078C07000059
:101BDC000000B408210A570871086308FB080D0AB5
:0E1BEC00006E616E00696E66006F7666000026
:00000001FF
