S00D0000426C696E6B2E7372656327
S11300000C945E000C9486000C9486000C9486007C
S11300100C9486000C9486000C9486000C94860044
S11300200C9486000C9486000C9486000C94D903DE
S11300300C9486000C9486000C9486000C94860024
S11300400C94E8070C94E5010C94F3060C94250732
S11300500C9486000C9486000C9486000C94860004
S11300600C9486000C948600000000080002010035
S1130070000304070000000000000000010204085F
S113008010204080010204081020010204081020FE
S1130090040404040404040402020202020203032A
S11300A00303030300000000250028002B000000C8
S11300B00000240027002A00C003550711241FBE96
S11300C0CFEFD8E0DEBFCDBF11E0A0E0B1E0E0E1CA
S11300D0F5E102C005900D92A037B107D9F722E0EF
S11300E0A0E7B1E001C01D92AD39B207E1F710E01D
S11300F0CEE5D0E004C02197FE010E94160ACC355B
S1130100D107C9F70E9483070C94860A0C94000057
S11301100F931F93CF93DF93EC01088119816AE059
S113012071E0C8010E944E0A892BB1F50A811B8136
S11301306FE071E0C8010E944E0A892B49F48C815A
S11301409D810E942B0A90930701809306010FC0A2
S113015065E171E0C8010E944E0A892B61F48C812B
S11301609D810E942B0A909305018093040181E0F4
S11301708093840187C069E171E0C8010E944E0A3E
S1130180892B09F07FC08C819D810E942B0A90935A
S113019009018093080176C06FE171E0C8010E94F3
S11301A04E0A892B71F50A811B8164E271E0C80152
S11301B00E944E0A892B49F48C819D810E942B0A4E
S11301C090930101809300015DC06DE271E0C8016C
S11301D00E944E0A892B09F055C08C819D810E9492
S11301E02B0A909303018093020180910201909164
S11301F00301181619060CF045C081E080937701BD
S113020041C061E371E0C8010E944E0A892BD1F517
S11302100A811B8165E371E0C8010E944E0A892BA3
S113022059F48C819D810E942B0A21E0892B09F4C9
S113023020E02093750123C067E371E0C8010E94A8
S11302404E0A892B59F48C819D810E942B0A21E04E
S1130250892B09F420E02093740111C069E371E053
S1130260C8010E944E0A892B69F48C819D810E94E9
S11302702B0A21E0892B09F420E02093730181E00B
S113028080937201DF91CF911F910F910895CF92C6
S1130290DF92EF92FF920F931F93CF93DF93CDB72B
S11302A0DEB764970FB6F894DEBF0FBECDBF000073
S11302B06BE371E00E94490A9E012F5F3F4F790171
S11302C000E010E06901009781F0F70181939193B8
S11302D07F010F5F1F4F0A30110539F06BE371E0A6
S11302E080E090E00E94490AEECFB801C6010E9466
S11302F0880064960FB6F894DEBF0FBECDBFDF91C1
S1130300CF911F910F91FF90EF90DF90CF900895C0
S113031026E040E855E260E070E087EF91E00E945B
S113032093066EE371E087EF91E00E94D60765E0E3
S113033070E08EEC91E00E94380566E070E08BEC92
S113034091E00E94380560910601709107018EECDE
S113035091E00E94710560910401709105018BEC9C
S113036091E00E94710561E08CE00E9401098CB566
S113037080648CBD10928A01109289018CB58068CA
S11303808CBD83E08093B1008FE38093B30010921F
S1130390B40061E083E00E94010961E087E00E940B
S11303A0010961E088E00E94010961E089E00E949E
S11303B0010960E087E00E943D0960E088E00E9456
S11303C03D0960E089E00C943D091F920F920FB63D
S11303D00F9211248F939F93EF93FF938EB5909177
S11303E08A01903478F4E0918A0191E09E0F909311
S11303F08A01F0E0E557FE4F80838A3019F481E0EA
S113040080938901FF91EF919F918F910F900FBE7F
S11304100F901F901895CF92DF92EF92FF928091E8
S11304207201882301F180917501882311F061E044
S113043001C060E087E00E943D0980917401882337
S113044011F061E001C060E088E00E943D09809104
S11304507301882311F061E001C060E089E00E942B
S11304603D091092720180917701882309F43FC0FD
S11304700E9432082091000130910101C09078015E
S1130480D0907901E0907A01F0907B01AB01BC013E
S11304904C195D096E097F09C901330FAA0BBB0B07
S11304A084179507A607B70710F59091760181E0A8
S11304B089278093760180917601882309F4FCC012
S11304C06FE770E083E00E947908809102019091C7
S11304D00301892B11F4109277010E943208609372
S11304E078017093790180937A0190937B018091D4
S11304F089018823A1F0E0918A01F0E0E557FE4FDD
S1130500108210928A016BE871E087EF91E00E94FB
S1130510D6078BE891E00E9447011092890120914F
S1130520870130918801809106019091070182171B
S1130530930714F50E9432082091080130910901B3
S1130540C0908001D0908101E0908201F0908301FD
S1130550AB01BC014C195D096E097F0988EE93E07B
S1130560821B930B092E000CAA0BBB0B8417950757
S1130570A607B70708F4AFC020918701309188011E
S113058080910601909107012817390714F50E94FC
S113059032082091080130910901C0908001D09067
S11305A08101E0908201F0908301AB01BC014C1900
S11305B05D096E097F0988EE93E0821B930B092E77
S11305C0000CAA0BBB0B84179507A607B70708F402
S11305D096C020918501309186018091040190910B
S11305E005018217930714F50E943208209108012F
S11305F030910901C0907C01D0907D01E0907E0192
S1130600F0907F01AB01BC014C195D096E097F09B3
S113061088EE93E0821B930B092E000CAA0BBB0BF4
S113062084179507A607B70708F47DC020918501B4
S113063030918601809104019091050128173907B2
S113064014F50E9432082091080130910901C090EC
S11306507C01D0907D01E0907E01F0907F01AB01A0
S1130660BC014C195D096E097F0988EE93E0821B79
S1130670930B092E000CAA0BBB0B84179507A60736
S1130680B70708F464C080918401882309F473C017
S113069060918701709188018EEC91E00E94710550
S11306A060918501709186018BEC91E0FF90EF9051
S11306B0DF90CF900C94710560E070E083E00E94BD
S11306C079088091020190910301019790930301AD
S11306D080930201FACE809187019091880101975D
S11306E090938801809387010E943208609380016F
S11306F07093810180938201909383013DCF809117
S113070087019091880101969093880180938701D5
S11307100E9432086093800170938101809382016A
S11307209093830156CF8091850190918601019722
S113073090938601809385010E94320860937C0126
S113074070937D0180937E0190937F016FCF8091A0
S1130750850190918601019690938601809385018D
S11307600E94320860937C0170937D0180937E0126
S113077090937F0188CFFF90EF90DF90CF90089502
S11307808EEC91E00E949A048BEC91E00E949A0412
S113079080910601909107019093880180938701CD
S11307A080910401909105019093860180938501C5
S11307B008951F920F920FB60F9211242F933F9317
S11307C04F935F936F937F938F939F93AF93BF9355
S11307D0EF93FF938091D20187FF05C010928500AB
S11307E0109284001BC02091D201022E000C330B06
S11307F08091D10190E02817390784F48091D201C7
S1130800082E000C990BFC01EE0FFF1F8E0F9F1F8B
S1130810FC01ED52FE4F808186FD15C08091D2010E
S11308208F5F8093D2012091D201022E000C330BF2
S11308308091D10190E028173907C4F48091D20146
S11308408C3064F113C08091D201082E000C990BF6
S1130850FC01EE0FFF1F8E0F9F1FFC01ED52FE4F98
S1130860808160E08F730E943D09D8CF809184001D
S113087090918500049680329E4418F480E29EE4B0
S113088005C080918400909185000496909389001E
S1130890809388008FEF8093D2013BC02091840025
S11308A0309185008091D201082E000C990BFC0137
S11308B0EE0FFF1F8E0F9F1FFC01ED52FE4F818133
S11308C09281820F931F9093890080938800809176
S11308D0D201082E000C990BFC01EE0FFF1F8E0FA6
S11308E09F1FFC01ED52FE4F808186FF12C0809154
S11308F0D201082E000C990BFC01EE0FFF1F8E0F86
S11309009F1FFC01ED52FE4F808161E08F730E94B6
S11309103D09FF91EF91BF91AF919F918F917F918D
S11309206F915F914F913F912F910F900FBE0F9058
S11309301F901895FC019091D1019C30A0F481E0A6
S1130940890F8093D1019083892F90E0FC01EE0FF1
S1130950FF1F8E0F9F1FFC01ED52FE4F8CED95E0A3
S11309609283818308958FEF80830895DF92EF92BD
S1130970FF920F931F93CF93DF93EC01D62E7A014E
S1130980890188818C3008F06AC061E08D2D0E9455
S113099001098881E82FF0E09F01220F331FE20F45
S11309A0F31FED52FE4F9D2D9F732081207CD22E8C
S11309B0D92AD08260E272E0AB014E195F0957FF79
S11309C002C04D5F5F4F55954795559547954983AF
S11309D040E659E09A01201B310B37FF02C02D5F1E
S11309E03F4F35952795359527952A832CE0622F1F
S11309F00E94BE09289FB001112440E050E09A01F2
S1130A00260F371FF901EE0FFF1F2E0F3F1FF901AD
S1130A10ED52FE4F908196FD16C04F5F5F4F4C30F4
S1130A20510569F781110FC01092800082E0809314
S1130A3081001092850010928400B19A80916F0019
S1130A40826080936F00E881F0E0CF01880F991FE6
S1130A50E80FF91FED52FE4F808180648083888106
S1130A60DF91CF911F910F91FF90EF90DF90089548
S1130A7020E639E040E252E00C94B604FC01908197
S1130A809C3070F5818128E830E0281B310987FD0E
S1130A903395220F331F220F331F621773077CF025
S1130AA0828128E532E0281B310987FD3395220F26
S1130AB0331F220F331F621773070CF49B014FB7C8
S1130AC0F894892F90E022503109FC01EE0FFF1FAA
S1130AD08E0F9F1FFC01ED52FE4F328321834FBFC7
S1130AE00895AF92BF92CF92DF92EF92FF920F934D
S1130AF01F93CF93DF93EC01603282E078070CF010
S1130B003FC077FD06C0653B71052CF064EB70E0D7
S1130B1002C060E070E0898128E830E05901A81A39
S1130B20B10887FDB394AA0CBB1CAA0CBB1C0B2CEC
S1130B30000CCC08DD08072E000C880B990B2A81C9
S1130B4008E512E0021B110927FD1395000F111F80
S1130B50000F111F012E000C220B330B3F932F9318
S1130B601F930F9314EBE12EF12C00E010E020E032
S1130B7030E0A9010E946D090F900F900F900F9023
S1130B80CE01DF91CF911F910F91FF90EF90DF90F5
S1130B90CF90BF90AF900C943E05FC01918D228DB7
S1130BA0892F90E0805C9F4F821B91098F73992756
S1130BB00895FC01918D828D981731F0828DE80F94
S1130BC0F11D858D90E008958FEF9FEF0895FC014E
S1130BD0918D828D981761F0828DDF01A80FB11D70
S1130BE05D968C91928D9F5F9F73928F90E0089594
S1130BF08FEF9FEF08958BE497E0892B49F080E015
S1130C0090E0892B29F00E944B0781110C9400007D
S1130C100895FC01848DDF01A80FB11DA35ABF4FB5
S1130C202C91848D90E001968F739927848FA689E7
S1130C30B7892C93A089B1898C9180648C93938D0E
S1130C40848D981306C00288F389E02D80818F7DFE
S1130C5080830895CF93DF93EC01888D8823C9F0B6
S1130C60EA89FB89808185FD05C0A889B9898C91B1
S1130C7086FD0FC00FB607FCF5CF808185FFF2CF4C
S1130C80A889B9898C9185FFEDCFCE010E94090610
S1130C90E7CFDF91CF910895EF92FF920F931F93C7
S1130CA0CF93DF93EC0181E0888F9B8D8C8D98131B
S1130CB005C0E889F989808185FD24C0F62E0B8D55
S1130CC010E00F5F1F4F0F731127E02E8C8DE81279
S1130CD00CC00FB607FCFACFE889F989808185FF3B
S1130CE0F5CFCE010E940906F1CF8B8DFE01E80FEE
S1130CF0F11DE35AFF4FF0820B8FEA89FB89808153
S1130D00806207C0EE89FF896083E889F989808160
S1130D108064808381E090E0DF91CF911F910F91F7
S1130D20FF90EF900895CF92DF92EF92FF921F937E
S1130D30CF93DF93EC016A017B01122F60E874E822
S1130D408EE190E0A70196010E94CA09DA01C90167
S1130D500197A109B109B695A79597958795AC0117
S1130D60E889F98982E08083411580E15807A8F079
S1130D70E889F989108260E472E48FE090E0A701C9
S1130D8096010E94CA09BA01A90141505109610999
S1130D9071097695679557954795EC85FD85508340
S1130DA0EE85FF854083188EEC89FD891083EA89DE
S1130DB0FB89808180618083EA89FB8980818860E6
S1130DC08083EA89FB89808180688083EA89FB8942
S1130DD080818F7D8083DF91CF911F91FF90EF9071
S1130DE0DF90CF9008951F920F920FB60F921124A7
S1130DF02F938F939F93EF93FF93E0910702F091CA
S1130E0008028081E0910D02F0910E0282FD12C071
S1130E109081809110028F5F8F732091110282174D
S1130E2051F0E0911002F0E0E950FE4F958F80936D
S1130E30100201C08081FF91EF919F918F912F91BA
S1130E400F900FBE0F901F9018951F920F920FB620
S1130E500F9211242F933F934F935F936F937F933C
S1130E608F939F93AF93BF93EF93FF9387EF91E09B
S1130E700E940906FF91EF91BF91AF919F918F91CD
S1130E807F916F915F914F913F912F910F900FBE82
S1130E900F901F90189587EF91E00E94CD0521E0F7
S1130EA0892B09F420E0822F0895E7EFF1E0138203
S1130EB0128288EE93E0A0E0B0E084839583A68359
S1130EC0B78382E591E09183808385EC90E09587F8
S1130ED0848784EC90E09787868780EC90E0918B00
S1130EE0808B81EC90E0938B828B82EC90E0958BED
S1130EF0848B86EC90E0978B868B118E128E138EEA
S1130F00148E089508950E943E080E9482070E944C
S1130F108801CBEFD5E00E940B022097E1F30E94F9
S1130F20FB05F9CFCF92DF92EF92FF920F931F93BD
S1130F30CF93DF936C017A018B01C0E0D0E0CE1532
S1130F40DF0589F0D8016D918D01D601ED91FC91F9
S1130F500190F081E02DC6010995892B11F47E01E1
S1130F6002C02196ECCFC701DF91CF911F910F9161
S1130F70FF90EF90DF90CF9008956115710579F09F
S1130F80FB0101900020E9F73197AF01461B570B95
S1130F90DC01ED91FC910280F381E02D099480E065
S1130FA090E008956EE571E00C94BD070F931F93D4
S1130FB0CF93DF93EC010E94BD078C01CE010E9408
S1130FC0D207800F911FDF91CF911F910F91089548
S1130FD01F920F920FB60F9211242F933F938F936A
S1130FE09F93AF93BF938091950290919602A091A5
S1130FF09702B09198023091940226E0230F2D3786
S113100020F40296A11DB11D05C029E8230F039603
S1131010A11DB11D20939402809395029093960292
S1131020A0939702B09398028091990290919A02AA
S1131030A0919B02B0919C020196A11DB11D8093C9
S1131040990290939A02A0939B02B0939C02BF9141
S1131050AF919F918F913F912F910F900FBE0F9061
S11310601F9018952FB7F89460919502709196028D
S113107080919702909198022FBF0895789484B537
S1131080826084BD84B5816084BD85B5826085BD80
S113109085B5816085BDEEE6F0E080818160808366
S11310A0E1E8F0E010828081826080838081816049
S11310B08083E0E8F0E0808181608083E1EBF0E010
S11310C0808184608083E0EBF0E0808181608083B4
S11310D0EAE7F0E08081846080838081826080839D
S11310E080818E7F80838081806880831092C1009C
S11310F008951F93CF93DF93182FEB0161E00E94B3
S11311000109209711F460E004C0CF3FD10539F400
S113111061E0812FDF91CF911F910C943D09E12F64
S1131120F0E0E859FF4FE491E330F9F048F4E1309E
S1131130B9F0E230A1F584B5806284BDC8BD34C085
S1131140E730E9F0E83019F1E43049F580918000A6
S1131150806280938000D0938B00C0938A0024C067
S113116084B5806884BDC7BD1FC08091800080683D
S113117080938000D0938900C093880015C080912B
S1131180B00080688093B000C093B3000DC080911C
S1131190B00080628093B000C093B40005C0C03832
S11311A0D1050CF0B5CFAFCFDF91CF911F9108954A
S11311B0833081F028F4813099F08230A1F00895D1
S11311C08730A9F08830B9F08430D1F48091800060
S11311D08F7D03C0809180008F7780938000089575
S11311E084B58F7702C084B58F7D84BD08958091C6
S11311F0B0008F7703C08091B0008F7D8093B000E2
S11312000895CF93DF9390E0FC01E458FF4F2491BD
S1131210FC01E057FF4F8491882361F190E0880F2F
S1131220991FFC01E255FF4FC591D491FC01EC5587
S1131230FF4FA591B491611109C09FB7F8948881BB
S1131240209582238883EC912E230BC0623061F4B5
S11312509FB7F8943881822F809583238883EC91FB
S11312602E2B2C939FBF06C08FB7F894E8812E2BAA
S113127028838FBFDF91CF9108951F93CF93DF937E
S1131280282F30E0F901E859FF4F8491F901E4581F
S1131290FF4FD491F901E057FF4FC491CC23C9F01B
S11312A0162F81110E94D808EC2FF0E0EE0FFF1FDB
S11312B0EC55FF4FA591B4918FB7F894111105C067
S11312C09C91ED2FE095E92302C0EC91ED2BEC937A
S11312D08FBFDF91CF911F9108954F925F926F92CC
S11312E07F92AF92BF92CF92DF92EF92FF920F93D1
S11312F01F93CF93DF93CDB7DEB729013A019B014A
S1131300AC01241935094609570989899A89AB8999
S1131310BC89BC01CD016A197B098C099D090E9415
S1131320AE09A801970124193509460957090E94F5
S1131330EC09CA01B9016A0D7B1D8C1D9D1DDF914D
S1131340CF911F910F91FF90EF90DF90CF90BF90BE
S1131350AF907F906F905F904F900895DB018F93D3
S11313609F930E940B0ABF91AF91A29F800D911D84
S1131370A39F900DB29F900D11240895991B79E0BD
S113138004C0991F961708F0961B881F7A95C9F711
S113139080950895A1E21A2EAA1BBB1BFD010DC066
S11313A0AA1FBB1FEE1FFF1FA217B307E407F50711
S11313B020F0A21BB30BE40BF50B661F771F881FED
S11313C0991F1A9469F760957095809590959B0183
S11313D0AC01BD01CF010895052E97FB1EF40094C6
S11313E00E94030A57FD07D00E94CA0907FC03D0D4
S11313F04EF40C94030A50954095309521953F4F37
S11314004F4F5F4F089590958095709561957F4FEC
S11314108F4F9F4F08950E941C0AA59F900DB49F63
S1131420900DA49F800D911D11240895EE0FFF1FB0
S11314300590F491E02D0994A29FB001B39FC001DF
S1131440A39F700D811D1124911DB29F700D811DEC
S11314501124911D0895FC0188279927E89421916E
S11314602032E9F3293010F02E30C8F32B3241F04A
S11314702D3239F4689404C00E947E0A820F911DB3
S1131480219120532A30C0F31EF4909581959F4FEB
S1131490089540E751E00E94570A0895FB01DC01DA
S11314A08D91019080190110D9F3990B0895FA01D7
S11314B0A191B081009719F41097E1F0CD01DC01FE
S11314C0CD010D90002011F4C00113C0FB01219146
S11314D0222319F02015D9F7F3CFFB012191201510
S11314E019F41E92119606C02223C1F70D90002014
S11314F0A1F7D001FA01A193B08308957AE0979FF0
S1131500902D879F802D910D11240895F894FFCF7D
S1131510C80003005A003C00E8036363747600705B
S1131520697463680079617700737065656400624B
S1131530656570007365745F72617465006E6F77C2
S1131540006C656400310032003300202C00737499
S1131550617274696E672073797374656D0000003D
S113156000004C069207CD05E705D9052A060D0AA9
S1131570006E616E00696E66006F7666002E000074
S9030000FC
